{
  "contractName": "Repository",
  "abi": [
    {
      "anonymous": false,
      "inputs": [
        {
          "indexed": false,
          "name": "buyer",
          "type": "address"
        },
        {
          "indexed": false,
          "name": "index",
          "type": "uint256"
        },
        {
          "indexed": false,
          "name": "repository_link",
          "type": "string"
        },
        {
          "indexed": false,
          "name": "repository_hash",
          "type": "bytes32"
        }
      ],
      "name": "License",
      "type": "event",
      "signature": "0xff2e10af29e80353acbc6e99d3782a4c0dda5ac29196f6fd9d04788fb237ecbb"
    },
    {
      "constant": false,
      "inputs": [
        {
          "name": "name",
          "type": "string"
        },
        {
          "name": "description",
          "type": "string"
        },
        {
          "name": "image_link",
          "type": "string"
        },
        {
          "name": "service_type",
          "type": "string"
        },
        {
          "name": "repository_link",
          "type": "string"
        },
        {
          "name": "price",
          "type": "uint256"
        },
        {
          "name": "version",
          "type": "string"
        },
        {
          "name": "requirements",
          "type": "string"
        },
        {
          "name": "resources",
          "type": "string"
        },
        {
          "name": "repository_hash",
          "type": "bytes32"
        }
      ],
      "name": "register_VNF",
      "outputs": [],
      "payable": false,
      "stateMutability": "nonpayable",
      "type": "function",
      "signature": "0xc1e72cc6"
    },
    {
      "constant": false,
      "inputs": [
        {
          "name": "index",
          "type": "uint256"
        },
        {
          "name": "name",
          "type": "string"
        },
        {
          "name": "description",
          "type": "string"
        },
        {
          "name": "image_link",
          "type": "string"
        },
        {
          "name": "service_type",
          "type": "string"
        },
        {
          "name": "repository_link",
          "type": "string"
        },
        {
          "name": "price",
          "type": "uint256"
        },
        {
          "name": "version",
          "type": "string"
        },
        {
          "name": "requirements",
          "type": "string"
        },
        {
          "name": "resources",
          "type": "string"
        },
        {
          "name": "repository_hash",
          "type": "bytes32"
        }
      ],
      "name": "update_VNF",
      "outputs": [],
      "payable": false,
      "stateMutability": "nonpayable",
      "type": "function",
      "signature": "0x843f7af0"
    },
    {
      "constant": true,
      "inputs": [],
      "name": "retrieve_numberOf_vnf",
      "outputs": [
        {
          "name": "count",
          "type": "uint256"
        }
      ],
      "payable": false,
      "stateMutability": "view",
      "type": "function",
      "signature": "0x9356d5e4"
    },
    {
      "constant": true,
      "inputs": [
        {
          "name": "index",
          "type": "uint256"
        }
      ],
      "name": "retrieve_vnf",
      "outputs": [
        {
          "name": "name",
          "type": "string"
        },
        {
          "name": "description",
          "type": "string"
        },
        {
          "name": "image_link",
          "type": "string"
        },
        {
          "name": "service_type",
          "type": "string"
        },
        {
          "name": "price",
          "type": "uint256"
        },
        {
          "name": "author",
          "type": "address"
        },
        {
          "name": "version",
          "type": "string"
        },
        {
          "name": "ratings",
          "type": "uint256[]"
        }
      ],
      "payable": false,
      "stateMutability": "view",
      "type": "function",
      "signature": "0x9e1ec248"
    },
    {
      "constant": true,
      "inputs": [
        {
          "name": "index",
          "type": "uint256"
        }
      ],
      "name": "retrieve_vnf_requirements",
      "outputs": [
        {
          "name": "requirements",
          "type": "string"
        },
        {
          "name": "resources",
          "type": "string"
        }
      ],
      "payable": false,
      "stateMutability": "view",
      "type": "function",
      "signature": "0x3de1816c"
    },
    {
      "constant": true,
      "inputs": [
        {
          "name": "index",
          "type": "uint256"
        }
      ],
      "name": "has_VNF_license",
      "outputs": [
        {
          "name": "license",
          "type": "bool"
        }
      ],
      "payable": false,
      "stateMutability": "view",
      "type": "function",
      "signature": "0x6eef5498"
    },
    {
      "constant": true,
      "inputs": [
        {
          "name": "index",
          "type": "uint256"
        }
      ],
      "name": "get_licensed_VNF",
      "outputs": [
        {
          "name": "repository_link",
          "type": "string"
        },
        {
          "name": "repository_hash",
          "type": "bytes32"
        }
      ],
      "payable": false,
      "stateMutability": "view",
      "type": "function",
      "signature": "0xb77b2284"
    },
    {
      "constant": false,
      "inputs": [
        {
          "name": "index",
          "type": "uint256"
        }
      ],
      "name": "delete_VNF",
      "outputs": [],
      "payable": false,
      "stateMutability": "nonpayable",
      "type": "function",
      "signature": "0xe3ba798e"
    },
    {
      "constant": false,
      "inputs": [
        {
          "name": "index",
          "type": "uint256"
        }
      ],
      "name": "buy_VNF",
      "outputs": [],
      "payable": true,
      "stateMutability": "payable",
      "type": "function",
      "signature": "0x8c033ef6"
    },
    {
      "constant": false,
      "inputs": [
        {
          "name": "index",
          "type": "uint256"
        },
        {
          "name": "rating",
          "type": "uint256"
        }
      ],
      "name": "rate_VNF",
      "outputs": [],
      "payable": false,
      "stateMutability": "nonpayable",
      "type": "function",
      "signature": "0xe1331422"
    }
  ],
  "bytecode": "0x608060405234801561001057600080fd5b50612b4f806100206000396000f3fe6080604052600436106100a4576000357c0100000000000000000000000000000000000000000000000000000000900463ffffffff1680633de1816c146100a95780636eef5498146101c9578063843f7af01461021c5780638c033ef6146107245780639356d5e4146107525780639e1ec2481461077d578063b77b228414610a63578063c1e72cc614610b1e578063e13314221461101c578063e3ba798e14611061575b600080fd5b3480156100b557600080fd5b506100e2600480360360208110156100cc57600080fd5b810190808035906020019092919050505061109c565b604051808060200180602001838103835285818151815260200191508051906020019080838360005b8381101561012657808201518184015260208101905061010b565b50505050905090810190601f1680156101535780820380516001836020036101000a031916815260200191505b50838103825284818151815260200191508051906020019080838360005b8381101561018c578082015181840152602081019050610171565b50505050905090810190601f1680156101b95780820380516001836020036101000a031916815260200191505b5094505050505060405180910390f35b3480156101d557600080fd5b50610202600480360360208110156101ec57600080fd5b810190808035906020019092919050505061121a565b604051808215151515815260200191505060405180910390f35b34801561022857600080fd5b50610722600480360361016081101561024057600080fd5b81019080803590602001909291908035906020019064010000000081111561026757600080fd5b82018360208201111561027957600080fd5b8035906020019184600183028401116401000000008311171561029b57600080fd5b91908080601f016020809104026020016040519081016040528093929190818152602001838380828437600081840152601f19601f820116905080830192505050505050509192919290803590602001906401000000008111156102fe57600080fd5b82018360208201111561031057600080fd5b8035906020019184600183028401116401000000008311171561033257600080fd5b91908080601f016020809104026020016040519081016040528093929190818152602001838380828437600081840152601f19601f8201169050808301925050505050505091929192908035906020019064010000000081111561039557600080fd5b8201836020820111156103a757600080fd5b803590602001918460018302840111640100000000831117156103c957600080fd5b91908080601f016020809104026020016040519081016040528093929190818152602001838380828437600081840152601f19601f8201169050808301925050505050505091929192908035906020019064010000000081111561042c57600080fd5b82018360208201111561043e57600080fd5b8035906020019184600183028401116401000000008311171561046057600080fd5b91908080601f016020809104026020016040519081016040528093929190818152602001838380828437600081840152601f19601f820116905080830192505050505050509192919290803590602001906401000000008111156104c357600080fd5b8201836020820111156104d557600080fd5b803590602001918460018302840111640100000000831117156104f757600080fd5b91908080601f016020809104026020016040519081016040528093929190818152602001838380828437600081840152601f19601f820116905080830192505050505050509192919290803590602001909291908035906020019064010000000081111561056457600080fd5b82018360208201111561057657600080fd5b8035906020019184600183028401116401000000008311171561059857600080fd5b91908080601f016020809104026020016040519081016040528093929190818152602001838380828437600081840152601f19601f820116905080830192505050505050509192919290803590602001906401000000008111156105fb57600080fd5b82018360208201111561060d57600080fd5b8035906020019184600183028401116401000000008311171561062f57600080fd5b91908080601f016020809104026020016040519081016040528093929190818152602001838380828437600081840152601f19601f8201169050808301925050505050505091929192908035906020019064010000000081111561069257600080fd5b8201836020820111156106a457600080fd5b803590602001918460018302840111640100000000831117156106c657600080fd5b91908080601f016020809104026020016040519081016040528093929190818152602001838380828437600081840152601f19601f8201169050808301925050505050505091929192908035906020019092919050505061128d565b005b6107506004803603602081101561073a57600080fd5b8101908080359060200190929190505050611595565b005b34801561075e57600080fd5b50610767611892565b6040518082815260200191505060405180910390f35b34801561078957600080fd5b506107b6600480360360208110156107a057600080fd5b810190808035906020019092919050505061189e565b60405180806020018060200180602001806020018981526020018873ffffffffffffffffffffffffffffffffffffffff1673ffffffffffffffffffffffffffffffffffffffff168152602001806020018060200187810387528f818151815260200191508051906020019080838360005b83811015610842578082015181840152602081019050610827565b50505050905090810190601f16801561086f5780820380516001836020036101000a031916815260200191505b5087810386528e818151815260200191508051906020019080838360005b838110156108a857808201518184015260208101905061088d565b50505050905090810190601f1680156108d55780820380516001836020036101000a031916815260200191505b5087810385528d818151815260200191508051906020019080838360005b8381101561090e5780820151818401526020810190506108f3565b50505050905090810190601f16801561093b5780820380516001836020036101000a031916815260200191505b5087810384528c818151815260200191508051906020019080838360005b83811015610974578082015181840152602081019050610959565b50505050905090810190601f1680156109a15780820380516001836020036101000a031916815260200191505b50878103835289818151815260200191508051906020019080838360005b838110156109da5780820151818401526020810190506109bf565b50505050905090810190601f168015610a075780820380516001836020036101000a031916815260200191505b50878103825288818151815260200191508051906020019060200280838360005b83811015610a43578082015181840152602081019050610a28565b505050509050019e50505050505050505050505050505060405180910390f35b348015610a6f57600080fd5b50610a9c60048036036020811015610a8657600080fd5b8101908080359060200190929190505050611d33565b6040518080602001838152602001828103825284818151815260200191508051906020019080838360005b83811015610ae2578082015181840152602081019050610ac7565b50505050905090810190601f168015610b0f5780820380516001836020036101000a031916815260200191505b50935050505060405180910390f35b348015610b2a57600080fd5b5061101a6004803603610140811015610b4257600080fd5b8101908080359060200190640100000000811115610b5f57600080fd5b820183602082011115610b7157600080fd5b80359060200191846001830284011164010000000083111715610b9357600080fd5b91908080601f016020809104026020016040519081016040528093929190818152602001838380828437600081840152601f19601f82011690508083019250505050505050919291929080359060200190640100000000811115610bf657600080fd5b820183602082011115610c0857600080fd5b80359060200191846001830284011164010000000083111715610c2a57600080fd5b91908080601f016020809104026020016040519081016040528093929190818152602001838380828437600081840152601f19601f82011690508083019250505050505050919291929080359060200190640100000000811115610c8d57600080fd5b820183602082011115610c9f57600080fd5b80359060200191846001830284011164010000000083111715610cc157600080fd5b91908080601f016020809104026020016040519081016040528093929190818152602001838380828437600081840152601f19601f82011690508083019250505050505050919291929080359060200190640100000000811115610d2457600080fd5b820183602082011115610d3657600080fd5b80359060200191846001830284011164010000000083111715610d5857600080fd5b91908080601f016020809104026020016040519081016040528093929190818152602001838380828437600081840152601f19601f82011690508083019250505050505050919291929080359060200190640100000000811115610dbb57600080fd5b820183602082011115610dcd57600080fd5b80359060200191846001830284011164010000000083111715610def57600080fd5b91908080601f016020809104026020016040519081016040528093929190818152602001838380828437600081840152601f19601f8201169050808301925050505050505091929192908035906020019092919080359060200190640100000000811115610e5c57600080fd5b820183602082011115610e6e57600080fd5b80359060200191846001830284011164010000000083111715610e9057600080fd5b91908080601f016020809104026020016040519081016040528093929190818152602001838380828437600081840152601f19601f82011690508083019250505050505050919291929080359060200190640100000000811115610ef357600080fd5b820183602082011115610f0557600080fd5b80359060200191846001830284011164010000000083111715610f2757600080fd5b91908080601f016020809104026020016040519081016040528093929190818152602001838380828437600081840152601f19601f82011690508083019250505050505050919291929080359060200190640100000000811115610f8a57600080fd5b820183602082011115610f9c57600080fd5b80359060200191846001830284011164010000000083111715610fbe57600080fd5b91908080601f016020809104026020016040519081016040528093929190818152602001838380828437600081840152601f19601f82011690508083019250505050505050919291929080359060200190929190505050611f26565b005b34801561102857600080fd5b5061105f6004803603604081101561103f57600080fd5b810190808035906020019092919080359060200190929190505050612171565b005b34801561106d57600080fd5b5061109a6004803603602081101561108457600080fd5b81019080803590602001909291905050506123bd565b005b6060806000838154811015156110ae57fe5b90600052602060002090600d02016008018054600181600116156101000203166002900480601f0160208091040260200160405190810160405280929190818152602001828054600181600116156101000203166002900480156111535780601f1061112857610100808354040283529160200191611153565b820191906000526020600020905b81548152906001019060200180831161113657829003601f168201915b5050505050915060008381548110151561116957fe5b90600052602060002090600d02016009018054600181600116156101000203166002900480601f01602080910402602001604051908101604052809291908181526020018280546001816001161561010002031660029004801561120e5780601f106111e35761010080835404028352916020019161120e565b820191906000526020600020905b8154815290600101906020018083116111f157829003601f168201915b50505050509050915091565b6000808281548110151561122a57fe5b90600052602060002090600d0201600c0160003373ffffffffffffffffffffffffffffffffffffffff1673ffffffffffffffffffffffffffffffffffffffff16815260200190815260200160002060009054906101000a900460ff169050919050565b60008b81548110151561129c57fe5b90600052602060002090600d020160060160009054906101000a900473ffffffffffffffffffffffffffffffffffffffff1673ffffffffffffffffffffffffffffffffffffffff163373ffffffffffffffffffffffffffffffffffffffff16141515611396576040517f08c379a00000000000000000000000000000000000000000000000000000000081526004018080602001828103825260228152602001807f4f6e6c7920617574686f722063616e2075706461746520564e46207061636b6181526020017f676500000000000000000000000000000000000000000000000000000000000081525060400191505060405180910390fd5b8960008c8154811015156113a657fe5b90600052602060002090600d020160000190805190602001906113ca9291906126dc565b508860008c8154811015156113db57fe5b90600052602060002090600d020160010190805190602001906113ff9291906126dc565b508760008c81548110151561141057fe5b90600052602060002090600d020160020190805190602001906114349291906126dc565b508660008c81548110151561144557fe5b90600052602060002090600d020160030190805190602001906114699291906126dc565b508560008c81548110151561147a57fe5b90600052602060002090600d0201600401908051906020019061149e9291906126dc565b508460008c8154811015156114af57fe5b90600052602060002090600d0201600501819055508360008c8154811015156114d457fe5b90600052602060002090600d020160070190805190602001906114f89291906126dc565b508260008c81548110151561150957fe5b90600052602060002090600d0201600801908051906020019061152d9291906126dc565b508160008c81548110151561153e57fe5b90600052602060002090600d020160090190805190602001906115629291906126dc565b508060008c81548110151561157357fe5b90600052602060002090600d0201600a01819055505050505050505050505050565b6000818154811015156115a457fe5b90600052602060002090600d0201600501543414151561162c576040517f08c379a000000000000000000000000000000000000000000000000000000000815260040180806020018281038252601c8152602001807f707269636520616e642076616c756520646f206e6f74206d617463680000000081525060200191505060405180910390fd5b6000808281548110151561163c57fe5b90600052602060002090600d020160060160009054906101000a900473ffffffffffffffffffffffffffffffffffffffff1690506000808381548110151561168057fe5b90600052602060002090600d02016005015490508173ffffffffffffffffffffffffffffffffffffffff166108fc829081150290604051600060405180830381858888f193505050501580156116da573d6000803e3d6000fd5b5060016000848154811015156116ec57fe5b90600052602060002090600d0201600c0160003373ffffffffffffffffffffffffffffffffffffffff1673ffffffffffffffffffffffffffffffffffffffff16815260200190815260200160002060006101000a81548160ff0219169083151502179055507fff2e10af29e80353acbc6e99d3782a4c0dda5ac29196f6fd9d04788fb237ecbb338460008681548110151561178357fe5b90600052602060002090600d02016004016000878154811015156117a357fe5b90600052602060002090600d0201600a0154604051808573ffffffffffffffffffffffffffffffffffffffff1673ffffffffffffffffffffffffffffffffffffffff1681526020018481526020018060200183815260200182810382528481815460018160011615610100020316600290048152602001915080546001816001161561010002031660029004801561187c5780601f106118515761010080835404028352916020019161187c565b820191906000526020600020905b81548152906001019060200180831161185f57829003601f168201915b50509550505050505060405180910390a1505050565b60008080549050905090565b6060806060806000806060806000898154811015156118b957fe5b90600052602060002090600d02016000018054600181600116156101000203166002900480601f01602080910402602001604051908101604052809291908181526020018280546001816001161561010002031660029004801561195e5780601f106119335761010080835404028352916020019161195e565b820191906000526020600020905b81548152906001019060200180831161194157829003601f168201915b5050505050975060008981548110151561197457fe5b90600052602060002090600d02016001018054600181600116156101000203166002900480601f016020809104026020016040519081016040528092919081815260200182805460018160011615610100020316600290048015611a195780601f106119ee57610100808354040283529160200191611a19565b820191906000526020600020905b8154815290600101906020018083116119fc57829003601f168201915b50505050509650600089815481101515611a2f57fe5b90600052602060002090600d02016002018054600181600116156101000203166002900480601f016020809104026020016040519081016040528092919081815260200182805460018160011615610100020316600290048015611ad45780601f10611aa957610100808354040283529160200191611ad4565b820191906000526020600020905b815481529060010190602001808311611ab757829003601f168201915b50505050509550600089815481101515611aea57fe5b90600052602060002090600d02016003018054600181600116156101000203166002900480601f016020809104026020016040519081016040528092919081815260200182805460018160011615610100020316600290048015611b8f5780601f10611b6457610100808354040283529160200191611b8f565b820191906000526020600020905b815481529060010190602001808311611b7257829003601f168201915b50505050509450600089815481101515611ba557fe5b90600052602060002090600d0201600501549350600089815481101515611bc857fe5b90600052602060002090600d020160060160009054906101000a900473ffffffffffffffffffffffffffffffffffffffff169250600089815481101515611c0b57fe5b90600052602060002090600d02016007018054600181600116156101000203166002900480601f016020809104026020016040519081016040528092919081815260200182805460018160011615610100020316600290048015611cb05780601f10611c8557610100808354040283529160200191611cb0565b820191906000526020600020905b815481529060010190602001808311611c9357829003601f168201915b50505050509150600089815481101515611cc657fe5b90600052602060002090600d0201600b01805480602002602001604051908101604052809291908181526020018280548015611d2157602002820191906000526020600020905b815481526020019060010190808311611d0d575b50505050509050919395975091939597565b6060600060011515600084815481101515611d4a57fe5b90600052602060002090600d0201600c0160003373ffffffffffffffffffffffffffffffffffffffff1673ffffffffffffffffffffffffffffffffffffffff16815260200190815260200160002060009054906101000a900460ff161515141515611e43576040517f08c379a00000000000000000000000000000000000000000000000000000000081526004018080602001828103825260258152602001807f4e6f206c6963656e736520616371756972656420666f7220737065636966696581526020017f6420564e4600000000000000000000000000000000000000000000000000000081525060400191505060405180910390fd5b600083815481101515611e5257fe5b90600052602060002090600d02016004018054600181600116156101000203166002900480601f016020809104026020016040519081016040528092919081815260200182805460018160011615610100020316600290048015611ef75780601f10611ecc57610100808354040283529160200191611ef7565b820191906000526020600020905b815481529060010190602001808311611eda57829003601f168201915b50505050509150600083815481101515611f0d57fe5b90600052602060002090600d0201600a01549050915091565b6000339050611f3361275c565b610180604051908101604052808d81526020018c81526020018b81526020018a81526020018981526020018881526020018373ffffffffffffffffffffffffffffffffffffffff1681526020018781526020018681526020018581526020018481526020016000604051908082528060200260200182016040528015611fc85781602001602082028038833980820191505090505b5081525090506000819080600181540180825580915050906001820390600052602060002090600d02016000909192909190915060008201518160000190805190602001906120189291906127d7565b5060208201518160010190805190602001906120359291906127d7565b5060408201518160020190805190602001906120529291906127d7565b50606082015181600301908051906020019061206f9291906127d7565b50608082015181600401908051906020019061208c9291906127d7565b5060a0820151816005015560c08201518160060160006101000a81548173ffffffffffffffffffffffffffffffffffffffff021916908373ffffffffffffffffffffffffffffffffffffffff16021790555060e08201518160070190805190602001906120fa9291906127d7565b506101008201518160080190805190602001906121189291906127d7565b506101208201518160090190805190602001906121369291906127d7565b5061014082015181600a015561016082015181600b01908051906020019061215f929190612857565b50505050505050505050505050505050565b600a81111515156121ea576040517f08c379a00000000000000000000000000000000000000000000000000000000081526004018080602001828103825260148152602001807f526174696e67207363616c6520697320312d313000000000000000000000000081525060200191505060405180910390fd5b60018110151515612263576040517f08c379a00000000000000000000000000000000000000000000000000000000081526004018080602001828103825260148152602001807f526174696e67207363616c6520697320312d313000000000000000000000000081525060200191505060405180910390fd5b6001151560008381548110151561227657fe5b90600052602060002090600d0201600c0160003373ffffffffffffffffffffffffffffffffffffffff1673ffffffffffffffffffffffffffffffffffffffff16815260200190815260200160002060009054906101000a900460ff16151514151561236f576040517f08c379a00000000000000000000000000000000000000000000000000000000081526004018080602001828103825260228152602001807f526174696e67206f6e6c7920706f737369626c6520666f72206c6963656e736581526020017f657300000000000000000000000000000000000000000000000000000000000081525060400191505060405180910390fd5b60008281548110151561237e57fe5b90600052602060002090600d0201600b018190806001815401808255809150509060018203906000526020600020016000909192909190915055505050565b60006001600080549050038154811015156123d457fe5b90600052602060002090600d02016000828154811015156123f157fe5b90600052602060002090600d0201600082018160000190805460018160011615610100020316600290046124269291906128a4565b506001820181600101908054600181600116156101000203166002900461244e9291906128a4565b50600282018160020190805460018160011615610100020316600290046124769291906128a4565b506003820181600301908054600181600116156101000203166002900461249e9291906128a4565b50600482018160040190805460018160011615610100020316600290046124c69291906128a4565b50600582015481600501556006820160009054906101000a900473ffffffffffffffffffffffffffffffffffffffff168160060160006101000a81548173ffffffffffffffffffffffffffffffffffffffff021916908373ffffffffffffffffffffffffffffffffffffffff1602179055506007820181600701908054600181600116156101000203166002900461255f9291906128a4565b50600882018160080190805460018160011615610100020316600290046125879291906128a4565b50600982018160090190805460018160011615610100020316600290046125af9291906128a4565b50600a82015481600a0155600b820181600b019080546125d092919061292b565b5090505060006001600080549050038154811015156125eb57fe5b90600052602060002090600d02016000808201600061260a919061297d565b60018201600061261a919061297d565b60028201600061262a919061297d565b60038201600061263a919061297d565b60048201600061264a919061297d565b60058201600090556006820160006101000a81549073ffffffffffffffffffffffffffffffffffffffff0219169055600782016000612689919061297d565b600882016000612699919061297d565b6009820160006126a9919061297d565b600a820160009055600b820160006126c191906129c5565b505060008054809190600190036126d891906129e6565b5050565b828054600181600116156101000203166002900490600052602060002090601f016020900481019282601f1061271d57805160ff191683800117855561274b565b8280016001018555821561274b579182015b8281111561274a57825182559160200191906001019061272f565b5b5090506127589190612a18565b5090565b61018060405190810160405280606081526020016060815260200160608152602001606081526020016060815260200160008152602001600073ffffffffffffffffffffffffffffffffffffffff16815260200160608152602001606081526020016060815260200160008019168152602001606081525090565b828054600181600116156101000203166002900490600052602060002090601f016020900481019282601f1061281857805160ff1916838001178555612846565b82800160010185558215612846579182015b8281111561284557825182559160200191906001019061282a565b5b5090506128539190612a18565b5090565b828054828255906000526020600020908101928215612893579160200282015b82811115612892578251825591602001919060010190612877565b5b5090506128a09190612a18565b5090565b828054600181600116156101000203166002900490600052602060002090601f016020900481019282601f106128dd578054855561291a565b8280016001018555821561291a57600052602060002091601f016020900482015b828111156129195782548255916001019190600101906128fe565b5b5090506129279190612a18565b5090565b82805482825590600052602060002090810192821561296c5760005260206000209182015b8281111561296b578254825591600101919060010190612950565b5b5090506129799190612a18565b5090565b50805460018160011615610100020316600290046000825580601f106129a357506129c2565b601f0160209004906000526020600020908101906129c19190612a18565b5b50565b50805460008255906000526020600020908101906129e39190612a18565b50565b815481835581811115612a1357600d0281600d028360005260206000209182019101612a129190612a3d565b5b505050565b612a3a91905b80821115612a36576000816000905550600101612a1e565b5090565b90565b612b2091905b80821115612b1c5760008082016000612a5c919061297d565b600182016000612a6c919061297d565b600282016000612a7c919061297d565b600382016000612a8c919061297d565b600482016000612a9c919061297d565b60058201600090556006820160006101000a81549073ffffffffffffffffffffffffffffffffffffffff0219169055600782016000612adb919061297d565b600882016000612aeb919061297d565b600982016000612afb919061297d565b600a820160009055600b82016000612b1391906129c5565b50600d01612a43565b5090565b9056fea165627a7a72305820a0ab29fc2d500cfc14cb5cbb4af78a609847d4784d2f7b7a574bf61aec98e4d70029",
  "source": "pragma solidity >=0.4.22 <0.6.0;\ncontract Repository {\n\n  struct VNF {\n    string name;\n    string description;\n    string image_link;\n    string service_type;\n    string repository_link;\n    uint price;\n    address payable author;\n    string version;\n    string requirements;\n    string resources;\n    bytes32 repository_hash;\n    uint[] ratings;\n    mapping (address => bool) licensees;\n  }\n\n  VNF[] VNF_repository;\n\n  event License(\n        address buyer,\n        uint index,\n        string repository_link,\n        bytes32 repository_hash\n  );\n\n  function register_VNF(string memory name,\n    string memory description, string memory image_link, string memory service_type,\n                        string memory repository_link, uint price, string memory version, string memory requirements, string memory resources,\n                        bytes32 repository_hash) public {\n\n    address payable author = msg.sender;\n    VNF memory vnf = VNF(name, description, image_link, service_type, repository_link,\n                             price, author, version, requirements, resources, repository_hash, new uint[](0));\n\n    VNF_repository.push(vnf);\n  }\n\n  function update_VNF(uint index, string memory name, string memory description, string memory image_link, string memory service_type,\n                        string memory repository_link, uint price, string memory version, string memory requirements, string memory resources,\n                        bytes32 repository_hash) public {\n    require(msg.sender == VNF_repository[index].author, \"Only author can update VNF package\");\n    VNF_repository[index].name = name;\n    VNF_repository[index].description = description;\n    VNF_repository[index].image_link = image_link;\n    VNF_repository[index].service_type = service_type;\n    VNF_repository[index].repository_link = repository_link;\n    VNF_repository[index].price = price;\n    VNF_repository[index].version = version;\n    VNF_repository[index].requirements = requirements;\n    VNF_repository[index].resources = resources;\n    VNF_repository[index].repository_hash = repository_hash;\n  }\n\n  function retrieve_numberOf_vnf() public view returns (uint count) {\n    count = VNF_repository.length;\n  }\n\n  function retrieve_vnf(uint index) public view returns\n  (string memory name, string memory description, string memory image_link, string memory service_type,\n   uint price, address author, string memory version, uint[] memory ratings) {\n     name = VNF_repository[index].name;\n     description = VNF_repository[index].description;\n     image_link = VNF_repository[index].image_link;\n     service_type = VNF_repository[index].service_type;\n     price = VNF_repository[index].price;\n     author = VNF_repository[index].author;\n     version = VNF_repository[index].version;\n     ratings = VNF_repository[index].ratings;\n  }\n\n  function retrieve_vnf_requirements(uint index) public view returns\n  (string memory requirements, string memory resources) {\n     requirements = VNF_repository[index].requirements;\n     resources = VNF_repository[index].resources;\n  }\n\n  function has_VNF_license(uint index) public view returns\n  (bool license) {\n     license = VNF_repository[index].licensees[msg.sender];\n  }\n\n  function get_licensed_VNF(uint index) public view returns\n  (string memory repository_link, bytes32 repository_hash) {\n     require(VNF_repository[index].licensees[msg.sender] == true,\n       \"No license acquired for specified VNF\");\n     repository_link = VNF_repository[index].repository_link;\n     repository_hash = VNF_repository[index].repository_hash;\n  }\n\n  function delete_VNF(uint index) public {\n    VNF_repository[index] = VNF_repository[VNF_repository.length-1];\n    delete VNF_repository[VNF_repository.length-1];\n    VNF_repository.length--;\n  }\n\n  function buy_VNF(uint index) public payable {\n    require(msg.value == VNF_repository[index].price, \"price and value do not match\");\n    address payable receiver = VNF_repository[index].author;\n    uint amount = VNF_repository[index].price;\n    receiver.transfer(amount);\n    VNF_repository[index].licensees[msg.sender] = true;\n    emit License(msg.sender, index, VNF_repository[index].repository_link, VNF_repository[index].repository_hash);\n  }\n\n  function rate_VNF(uint index, uint rating) public {\n    require(rating <= 10, \"Rating scale is 1-10\");\n    require(rating >= 1, \"Rating scale is 1-10\");\n    require(VNF_repository[index].licensees[msg.sender] == true,\n      \"Rating only possible for licensees\");\n    VNF_repository[index].ratings.push(rating);\n  }\n}\n",
  "sourcePath": "/Users/manuelkeller/Documents/MA/trusted-VNF-repository-react/contracts/Repository.sol",
  "compiler": {
    "name": "solc",
    "version": "0.5.0+commit.1d4f565a.Emscripten.clang"
  },
  "schemaVersion": "3.0.1",
  "updatedAt": "2019-04-28T09:07:43.873Z",
  "devdoc": {
    "methods": {}
  },
  "userdoc": {
    "methods": {}
  }
}